{
  "_format": "hh3-artifact-1",
  "contractName": "UniswapV2Router02",
  "sourceName": "contracts/dex/UniswapV2Router02.sol",
  "abi": [
    {
      "inputs": [
        {
          "internalType": "address",
          "name": "_factory",
          "type": "address"
        },
        {
          "internalType": "address",
          "name": "_WMON",
          "type": "address"
        }
      ],
      "stateMutability": "nonpayable",
      "type": "constructor"
    },
    {
      "inputs": [
        {
          "internalType": "address",
          "name": "token",
          "type": "address"
        }
      ],
      "name": "SafeERC20FailedOperation",
      "type": "error"
    },
    {
      "inputs": [],
      "name": "WMON",
      "outputs": [
        {
          "internalType": "address",
          "name": "",
          "type": "address"
        }
      ],
      "stateMutability": "view",
      "type": "function"
    },
    {
      "inputs": [
        {
          "internalType": "address",
          "name": "tokenA",
          "type": "address"
        },
        {
          "internalType": "address",
          "name": "tokenB",
          "type": "address"
        },
        {
          "internalType": "uint256",
          "name": "amountADesired",
          "type": "uint256"
        },
        {
          "internalType": "uint256",
          "name": "amountBDesired",
          "type": "uint256"
        },
        {
          "internalType": "uint256",
          "name": "amountAMin",
          "type": "uint256"
        },
        {
          "internalType": "uint256",
          "name": "amountBMin",
          "type": "uint256"
        },
        {
          "internalType": "address",
          "name": "to",
          "type": "address"
        },
        {
          "internalType": "uint256",
          "name": "deadline",
          "type": "uint256"
        }
      ],
      "name": "addLiquidity",
      "outputs": [
        {
          "internalType": "uint256",
          "name": "amountA",
          "type": "uint256"
        },
        {
          "internalType": "uint256",
          "name": "amountB",
          "type": "uint256"
        },
        {
          "internalType": "uint256",
          "name": "liquidity",
          "type": "uint256"
        }
      ],
      "stateMutability": "nonpayable",
      "type": "function"
    },
    {
      "inputs": [
        {
          "internalType": "address",
          "name": "token",
          "type": "address"
        },
        {
          "internalType": "uint256",
          "name": "amountTokenDesired",
          "type": "uint256"
        },
        {
          "internalType": "uint256",
          "name": "amountTokenMin",
          "type": "uint256"
        },
        {
          "internalType": "uint256",
          "name": "amountMONMin",
          "type": "uint256"
        },
        {
          "internalType": "address",
          "name": "to",
          "type": "address"
        },
        {
          "internalType": "uint256",
          "name": "deadline",
          "type": "uint256"
        }
      ],
      "name": "addLiquidityMON",
      "outputs": [
        {
          "internalType": "uint256",
          "name": "amountToken",
          "type": "uint256"
        },
        {
          "internalType": "uint256",
          "name": "amountMON",
          "type": "uint256"
        },
        {
          "internalType": "uint256",
          "name": "liquidity",
          "type": "uint256"
        }
      ],
      "stateMutability": "payable",
      "type": "function"
    },
    {
      "inputs": [],
      "name": "factory",
      "outputs": [
        {
          "internalType": "address",
          "name": "",
          "type": "address"
        }
      ],
      "stateMutability": "view",
      "type": "function"
    },
    {
      "inputs": [
        {
          "internalType": "uint256",
          "name": "amountOut",
          "type": "uint256"
        },
        {
          "internalType": "address[]",
          "name": "path",
          "type": "address[]"
        }
      ],
      "name": "getAmountsIn",
      "outputs": [
        {
          "internalType": "uint256[]",
          "name": "amounts",
          "type": "uint256[]"
        }
      ],
      "stateMutability": "view",
      "type": "function"
    },
    {
      "inputs": [
        {
          "internalType": "uint256",
          "name": "amountIn",
          "type": "uint256"
        },
        {
          "internalType": "address[]",
          "name": "path",
          "type": "address[]"
        }
      ],
      "name": "getAmountsOut",
      "outputs": [
        {
          "internalType": "uint256[]",
          "name": "amounts",
          "type": "uint256[]"
        }
      ],
      "stateMutability": "view",
      "type": "function"
    },
    {
      "inputs": [
        {
          "internalType": "address",
          "name": "tokenA",
          "type": "address"
        },
        {
          "internalType": "address",
          "name": "tokenB",
          "type": "address"
        },
        {
          "internalType": "uint256",
          "name": "liquidity",
          "type": "uint256"
        },
        {
          "internalType": "uint256",
          "name": "amountAMin",
          "type": "uint256"
        },
        {
          "internalType": "uint256",
          "name": "amountBMin",
          "type": "uint256"
        },
        {
          "internalType": "address",
          "name": "to",
          "type": "address"
        },
        {
          "internalType": "uint256",
          "name": "deadline",
          "type": "uint256"
        }
      ],
      "name": "removeLiquidity",
      "outputs": [
        {
          "internalType": "uint256",
          "name": "amountA",
          "type": "uint256"
        },
        {
          "internalType": "uint256",
          "name": "amountB",
          "type": "uint256"
        }
      ],
      "stateMutability": "nonpayable",
      "type": "function"
    },
    {
      "inputs": [
        {
          "internalType": "address",
          "name": "token",
          "type": "address"
        },
        {
          "internalType": "uint256",
          "name": "liquidity",
          "type": "uint256"
        },
        {
          "internalType": "uint256",
          "name": "amountTokenMin",
          "type": "uint256"
        },
        {
          "internalType": "uint256",
          "name": "amountMONMin",
          "type": "uint256"
        },
        {
          "internalType": "address",
          "name": "to",
          "type": "address"
        },
        {
          "internalType": "uint256",
          "name": "deadline",
          "type": "uint256"
        }
      ],
      "name": "removeLiquidityMON",
      "outputs": [
        {
          "internalType": "uint256",
          "name": "amountToken",
          "type": "uint256"
        },
        {
          "internalType": "uint256",
          "name": "amountMON",
          "type": "uint256"
        }
      ],
      "stateMutability": "nonpayable",
      "type": "function"
    },
    {
      "inputs": [
        {
          "internalType": "uint256",
          "name": "amountOutMin",
          "type": "uint256"
        },
        {
          "internalType": "address[]",
          "name": "path",
          "type": "address[]"
        },
        {
          "internalType": "address",
          "name": "to",
          "type": "address"
        },
        {
          "internalType": "uint256",
          "name": "deadline",
          "type": "uint256"
        }
      ],
      "name": "swapExactMONForTokens",
      "outputs": [
        {
          "internalType": "uint256[]",
          "name": "amounts",
          "type": "uint256[]"
        }
      ],
      "stateMutability": "payable",
      "type": "function"
    },
    {
      "inputs": [
        {
          "internalType": "uint256",
          "name": "amountIn",
          "type": "uint256"
        },
        {
          "internalType": "uint256",
          "name": "amountOutMin",
          "type": "uint256"
        },
        {
          "internalType": "address[]",
          "name": "path",
          "type": "address[]"
        },
        {
          "internalType": "address",
          "name": "to",
          "type": "address"
        },
        {
          "internalType": "uint256",
          "name": "deadline",
          "type": "uint256"
        }
      ],
      "name": "swapExactTokensForMON",
      "outputs": [
        {
          "internalType": "uint256[]",
          "name": "amounts",
          "type": "uint256[]"
        }
      ],
      "stateMutability": "nonpayable",
      "type": "function"
    },
    {
      "inputs": [
        {
          "internalType": "uint256",
          "name": "amountIn",
          "type": "uint256"
        },
        {
          "internalType": "uint256",
          "name": "amountOutMin",
          "type": "uint256"
        },
        {
          "internalType": "address[]",
          "name": "path",
          "type": "address[]"
        },
        {
          "internalType": "address",
          "name": "to",
          "type": "address"
        },
        {
          "internalType": "uint256",
          "name": "deadline",
          "type": "uint256"
        }
      ],
      "name": "swapExactTokensForTokens",
      "outputs": [
        {
          "internalType": "uint256[]",
          "name": "amounts",
          "type": "uint256[]"
        }
      ],
      "stateMutability": "nonpayable",
      "type": "function"
    },
    {
      "inputs": [
        {
          "internalType": "uint256",
          "name": "amountOut",
          "type": "uint256"
        },
        {
          "internalType": "address[]",
          "name": "path",
          "type": "address[]"
        },
        {
          "internalType": "address",
          "name": "to",
          "type": "address"
        },
        {
          "internalType": "uint256",
          "name": "deadline",
          "type": "uint256"
        }
      ],
      "name": "swapMONForExactTokens",
      "outputs": [
        {
          "internalType": "uint256[]",
          "name": "amounts",
          "type": "uint256[]"
        }
      ],
      "stateMutability": "payable",
      "type": "function"
    },
    {
      "inputs": [
        {
          "internalType": "uint256",
          "name": "amountOut",
          "type": "uint256"
        },
        {
          "internalType": "uint256",
          "name": "amountInMax",
          "type": "uint256"
        },
        {
          "internalType": "address[]",
          "name": "path",
          "type": "address[]"
        },
        {
          "internalType": "address",
          "name": "to",
          "type": "address"
        },
        {
          "internalType": "uint256",
          "name": "deadline",
          "type": "uint256"
        }
      ],
      "name": "swapTokensForExactMON",
      "outputs": [
        {
          "internalType": "uint256[]",
          "name": "amounts",
          "type": "uint256[]"
        }
      ],
      "stateMutability": "nonpayable",
      "type": "function"
    },
    {
      "inputs": [
        {
          "internalType": "uint256",
          "name": "amountOut",
          "type": "uint256"
        },
        {
          "internalType": "uint256",
          "name": "amountInMax",
          "type": "uint256"
        },
        {
          "internalType": "address[]",
          "name": "path",
          "type": "address[]"
        },
        {
          "internalType": "address",
          "name": "to",
          "type": "address"
        },
        {
          "internalType": "uint256",
          "name": "deadline",
          "type": "uint256"
        }
      ],
      "name": "swapTokensForExactTokens",
      "outputs": [
        {
          "internalType": "uint256[]",
          "name": "amounts",
          "type": "uint256[]"
        }
      ],
      "stateMutability": "nonpayable",
      "type": "function"
    },
    {
      "stateMutability": "payable",
      "type": "receive"
    }
  ],
  "bytecode": "0x60c060405234801561000f575f5ffd5b50604051612ec1380380612ec183398101604081905261002e91610060565b6001600160a01b039182166080521660a052610091565b80516001600160a01b038116811461005b575f5ffd5b919050565b5f5f60408385031215610071575f5ffd5b61007a83610045565b915061008860208401610045565b90509250929050565b60805160a051612d146101ad5f395f818160ec01528181610311015281816103690152818161059301528181610696015281816106ee015281816107c301528181610818015281816108b20152818161094301528181610a7601528181610b8501528181610c0e01528181610f07015281816114a0015281816115bc015261164501525f8181610275015281816103e50152818161048e0152818161076a015281816107f601528181610af001528181610c4001528181610dc201528181610e6b01528181610f830152818161103e015281816110fa01528181611292015281816112f50152818161151a0152818161167701528181611b0b01528181611b5b01528181611ec401528181611f640152611fd70152612d145ff3fe6080604052600436106100dc575f3560e01c80638803dbee1161007c578063d06ca61f11610057578063d06ca61f146102af578063e8e33700146102ce578063ee4c5c2b146102ed578063f1435d2914610300575f5ffd5b80638803dbee14610226578063baa2abde14610245578063c45a015514610264575f5ffd5b8063220ccca7116100b7578063220ccca7146101a75780632a83c1d0146101d557806338ed1739146101e85780634d2c0e5a14610207575f5ffd5b806301eb95211461011f57806307695185146101545780631f00ca7414610188575f5ffd5b3661011b57336001600160a01b037f0000000000000000000000000000000000000000000000000000000000000000161461011957610119612536565b005b5f5ffd5b34801561012a575f5ffd5b5061013e6101393660046125b2565b610333565b60405161014b9190612620565b60405180910390f35b34801561015f575f5ffd5b5061017361016e366004612662565b61066d565b6040805192835260208301919091520161014b565b348015610193575f5ffd5b5061013e6101a23660046126d0565b610763565b6101ba6101b5366004612662565b610799565b6040805193845260208401929092529082015260600161014b565b61013e6101e33660046127a7565b610a51565b3480156101f3575f5ffd5b5061013e6102023660046125b2565b610d9a565b348015610212575f5ffd5b5061013e6102213660046125b2565b610eda565b348015610231575f5ffd5b5061013e6102403660046125b2565b611016565b348015610250575f5ffd5b5061017361025f366004612809565b6110d1565b34801561026f575f5ffd5b506102977f000000000000000000000000000000000000000000000000000000000000000081565b6040516001600160a01b03909116815260200161014b565b3480156102ba575f5ffd5b5061013e6102c93660046126d0565b61128b565b3480156102d9575f5ffd5b506101ba6102e8366004612877565b6112b8565b61013e6102fb3660046127a7565b61147b565b34801561030b575f5ffd5b506102977f000000000000000000000000000000000000000000000000000000000000000081565b6060814281101561035f5760405162461bcd60e51b8152600401610356906128ee565b60405180910390fd5b6001600160a01b037f0000000000000000000000000000000000000000000000000000000000000000168686610396600182612939565b8181106103a5576103a561294c565b90506020020160208101906103ba9190612960565b6001600160a01b0316146103e05760405162461bcd60e51b815260040161035690612982565b61043d7f0000000000000000000000000000000000000000000000000000000000000000898888808060200260200160405190810160405280939291908181526020018383602002808284375f9201919091525061177d92505050565b915086826001845161044f9190612939565b8151811061045f5761045f61294c565b602002602001015110156104855760405162461bcd60e51b8152600401610356906129b9565b610553336105017f000000000000000000000000000000000000000000000000000000000000000089895f8181106104bf576104bf61294c565b90506020020160208101906104d49190612960565b8a8a60018181106104e7576104e761294c565b90506020020160208101906104fc9190612960565b6118f9565b845f815181106105135761051361294c565b602002602001015189895f81811061052d5761052d61294c565b90506020020160208101906105429190612960565b6001600160a01b03169291906119d0565b610591828787808060200260200160405190810160405280939291908181526020018383602002808284375f92019190915250309250611a30915050565b7f00000000000000000000000000000000000000000000000000000000000000006001600160a01b0316632e1a7d4d83600185516105cf9190612939565b815181106105df576105df61294c565b60200260200101516040518263ffffffff1660e01b815260040161060591815260200190565b5f604051808303815f87803b15801561061c575f5ffd5b505af115801561062e573d5f5f3e3d5ffd5b505050506106628483600185516106459190612939565b815181106106555761065561294c565b6020026020010151611c1d565b509695505050505050565b5f5f82428110156106905760405162461bcd60e51b8152600401610356906128ee565b6106bf897f00000000000000000000000000000000000000000000000000000000000000008a8a8a308a6110d1565b90935091506106d86001600160a01b038a168685611ce7565b604051632e1a7d4d60e01b8152600481018390527f00000000000000000000000000000000000000000000000000000000000000006001600160a01b031690632e1a7d4d906024015f604051808303815f87803b158015610737575f5ffd5b505af1158015610749573d5f5f3e3d5ffd5b505050506107578583611c1d565b50965096945050505050565b60606107907f00000000000000000000000000000000000000000000000000000000000000008484611d18565b90505b92915050565b5f5f5f83428110156107bd5760405162461bcd60e51b8152600401610356906128ee565b6107eb8a7f00000000000000000000000000000000000000000000000000000000000000008b348c8c611e97565b90945092505f61083c7f00000000000000000000000000000000000000000000000000000000000000008c7f00000000000000000000000000000000000000000000000000000000000000006118f9565b6040516323b872dd60e01b81529091506001600160a01b038c16906323b872dd9061086f90339085908a90600401612a04565b6020604051808303815f875af115801561088b573d5f5f3e3d5ffd5b505050506040513d601f19601f820116820180604052508101906108af9190612a28565b507f00000000000000000000000000000000000000000000000000000000000000006001600160a01b031663d0e30db0856040518263ffffffff1660e01b81526004015f604051808303818588803b158015610909575f5ffd5b505af115801561091b573d5f5f3e3d5ffd5b505060405163a9059cbb60e01b81526001600160a01b038581166004830152602482018990527f000000000000000000000000000000000000000000000000000000000000000016935063a9059cbb925060440190506020604051808303815f875af115801561098d573d5f5f3e3d5ffd5b505050506040513d601f19601f820116820180604052508101906109b19190612a28565b6109bd576109bd612536565b6040516335313c2160e11b81526001600160a01b038881166004830152821690636a627842906024016020604051808303815f875af1158015610a02573d5f5f3e3d5ffd5b505050506040513d601f19601f82011682018060405250810190610a269190612a47565b925083341115610a4357610a4333610a3e8634612939565b611c1d565b505096509650969350505050565b60608142811015610a745760405162461bcd60e51b8152600401610356906128ee565b7f00000000000000000000000000000000000000000000000000000000000000006001600160a01b031686865f818110610ab057610ab061294c565b9050602002016020810190610ac59190612960565b6001600160a01b031614610aeb5760405162461bcd60e51b815260040161035690612982565b610b487f0000000000000000000000000000000000000000000000000000000000000000888888808060200260200160405190810160405280939291908181526020018383602002808284375f92019190915250611d1892505050565b915034825f81518110610b5d57610b5d61294c565b60200260200101511115610b835760405162461bcd60e51b815260040161035690612a5e565b7f00000000000000000000000000000000000000000000000000000000000000006001600160a01b031663d0e30db0835f81518110610bc457610bc461294c565b60200260200101516040518263ffffffff1660e01b81526004015f604051808303818588803b158015610bf5575f5ffd5b505af1158015610c07573d5f5f3e3d5ffd5b50505050507f00000000000000000000000000000000000000000000000000000000000000006001600160a01b031663a9059cbb610c717f000000000000000000000000000000000000000000000000000000000000000089895f8181106104bf576104bf61294c565b845f81518110610c8357610c8361294c565b60200260200101516040518363ffffffff1660e01b8152600401610cbc9291906001600160a01b03929092168252602082015260400190565b6020604051808303815f875af1158015610cd8573d5f5f3e3d5ffd5b505050506040513d601f19601f82011682018060405250810190610cfc9190612a28565b610d0857610d08612536565b610d46828787808060200260200160405190810160405280939291908181526020018383602002808284375f92019190915250899250611a30915050565b815f81518110610d5857610d5861294c565b6020026020010151341115610d9057610d9033835f81518110610d7d57610d7d61294c565b602002602001015134610a3e9190612939565b5095945050505050565b60608142811015610dbd5760405162461bcd60e51b8152600401610356906128ee565b610e1a7f0000000000000000000000000000000000000000000000000000000000000000898888808060200260200160405190810160405280939291908181526020018383602002808284375f9201919091525061177d92505050565b9150868260018451610e2c9190612939565b81518110610e3c57610e3c61294c565b60200260200101511015610e625760405162461bcd60e51b8152600401610356906129b9565b610e9c336105017f000000000000000000000000000000000000000000000000000000000000000089895f8181106104bf576104bf61294c565b610662828787808060200260200160405190810160405280939291908181526020018383602002808284375f92019190915250899250611a30915050565b60608142811015610efd5760405162461bcd60e51b8152600401610356906128ee565b6001600160a01b037f0000000000000000000000000000000000000000000000000000000000000000168686610f34600182612939565b818110610f4357610f4361294c565b9050602002016020810190610f589190612960565b6001600160a01b031614610f7e5760405162461bcd60e51b815260040161035690612982565b610fdb7f0000000000000000000000000000000000000000000000000000000000000000898888808060200260200160405190810160405280939291908181526020018383602002808284375f92019190915250611d1892505050565b915086825f81518110610ff057610ff061294c565b602002602001015111156104855760405162461bcd60e51b815260040161035690612a5e565b606081428110156110395760405162461bcd60e51b8152600401610356906128ee565b6110967f0000000000000000000000000000000000000000000000000000000000000000898888808060200260200160405190810160405280939291908181526020018383602002808284375f92019190915250611d1892505050565b915086825f815181106110ab576110ab61294c565b60200260200101511115610e625760405162461bcd60e51b815260040161035690612a5e565b5f5f82428110156110f45760405162461bcd60e51b8152600401610356906128ee565b5f6111207f00000000000000000000000000000000000000000000000000000000000000008c8c6118f9565b6040516323b872dd60e01b81529091506001600160a01b038216906323b872dd9061115390339085908e90600401612a04565b6020604051808303815f875af115801561116f573d5f5f3e3d5ffd5b505050506040513d601f19601f820116820180604052508101906111939190612a28565b5060405163226bf2d160e21b81526001600160a01b0387811660048301525f9182918416906389afcb449060240160408051808303815f875af11580156111dc573d5f5f3e3d5ffd5b505050506040513d601f19601f820116820180604052508101906112009190612aa5565b915091505f61120f8e8e6120b1565b509050806001600160a01b03168e6001600160a01b031614611232578183611235565b82825b90975095508a87101561125a5760405162461bcd60e51b815260040161035690612ac7565b8986101561127a5760405162461bcd60e51b815260040161035690612b0d565b505050505097509795505050505050565b60606107907f0000000000000000000000000000000000000000000000000000000000000000848461177d565b5f5f5f83428110156112dc5760405162461bcd60e51b8152600401610356906128ee565b6112ea8c8c8c8c8c8c611e97565b90945092505f61131b7f00000000000000000000000000000000000000000000000000000000000000008e8e6118f9565b6040516323b872dd60e01b81529091506001600160a01b038e16906323b872dd9061134e90339085908a90600401612a04565b6020604051808303815f875af115801561136a573d5f5f3e3d5ffd5b505050506040513d601f19601f8201168201806040525081019061138e9190612a28565b506040516323b872dd60e01b81526001600160a01b038d16906323b872dd906113bf90339085908990600401612a04565b6020604051808303815f875af11580156113db573d5f5f3e3d5ffd5b505050506040513d601f19601f820116820180604052508101906113ff9190612a28565b506040516335313c2160e11b81526001600160a01b038881166004830152821690636a627842906024016020604051808303815f875af1158015611445573d5f5f3e3d5ffd5b505050506040513d601f19601f820116820180604052508101906114699190612a47565b92505050985098509895505050505050565b6060814281101561149e5760405162461bcd60e51b8152600401610356906128ee565b7f00000000000000000000000000000000000000000000000000000000000000006001600160a01b031686865f8181106114da576114da61294c565b90506020020160208101906114ef9190612960565b6001600160a01b0316146115155760405162461bcd60e51b815260040161035690612982565b6115727f0000000000000000000000000000000000000000000000000000000000000000348888808060200260200160405190810160405280939291908181526020018383602002808284375f9201919091525061177d92505050565b91508682600184516115849190612939565b815181106115945761159461294c565b602002602001015110156115ba5760405162461bcd60e51b8152600401610356906129b9565b7f00000000000000000000000000000000000000000000000000000000000000006001600160a01b031663d0e30db0835f815181106115fb576115fb61294c565b60200260200101516040518263ffffffff1660e01b81526004015f604051808303818588803b15801561162c575f5ffd5b505af115801561163e573d5f5f3e3d5ffd5b50505050507f00000000000000000000000000000000000000000000000000000000000000006001600160a01b031663a9059cbb6116a87f000000000000000000000000000000000000000000000000000000000000000089895f8181106104bf576104bf61294c565b845f815181106116ba576116ba61294c565b60200260200101516040518363ffffffff1660e01b81526004016116f39291906001600160a01b03929092168252602082015260400190565b6020604051808303815f875af115801561170f573d5f5f3e3d5ffd5b505050506040513d601f19601f820116820180604052508101906117339190612a28565b61173f5761173f612536565b610d90828787808060200260200160405190810160405280939291908181526020018383602002808284375f92019190915250899250611a30915050565b60606002825110156117d15760405162461bcd60e51b815260206004820152601e60248201527f556e697377617056324c6962726172793a20494e56414c49445f5041544800006044820152606401610356565b815167ffffffffffffffff8111156117eb576117eb6126bc565b604051908082528060200260200182016040528015611814578160200160208202803683370190505b50905082815f8151811061182a5761182a61294c565b6020026020010181815250505f5b600183516118469190612939565b8110156118f1575f5f611898878685815181106118655761186561294c565b60200260200101518786600161187b9190612b53565b8151811061188b5761188b61294c565b60200260200101516121a7565b915091506118c08484815181106118b1576118b161294c565b6020026020010151838361226c565b846118cc856001612b53565b815181106118dc576118dc61294c565b60209081029190910101525050600101611838565b509392505050565b5f5f5f61190685856120b1565b6040516bffffffffffffffffffffffff19606084811b8216602084015283901b16603482015291935091508690604801604051602081830303815290604052805190602001206040516020016119ae9291906001600160f81b0319815260609290921b6bffffffffffffffffffffffff1916600183015260158201527f35e37666cfca435a14cbff2d9fc7639ca1a99a03d19ba47e9386a5008fa17703603582015260550190565b60408051601f1981840301815291905280516020909101209695505050505050565b611a2a84856001600160a01b03166323b872dd8686866040516024016119f893929190612a04565b604051602081830303815290604052915060e01b6020820180516001600160e01b038381831617835250505050612345565b50505050565b5f5b60018351611a409190612939565b811015611a2a575f5f848381518110611a5b57611a5b61294c565b602002602001015185846001611a719190612b53565b81518110611a8157611a8161294c565b6020026020010151915091505f611a9883836120b1565b5090505f87611aa8866001612b53565b81518110611ab857611ab861294c565b602002602001015190505f5f836001600160a01b0316866001600160a01b031614611ae457825f611ae7565b5f835b915091505f60028a51611afa9190612939565b8810611b065788611b54565b611b547f0000000000000000000000000000000000000000000000000000000000000000878c611b378c6002612b53565b81518110611b4757611b4761294c565b60200260200101516118f9565b9050611b817f000000000000000000000000000000000000000000000000000000000000000088886118f9565b6001600160a01b031663022c0d9f8484845f6040519080825280601f01601f191660200182016040528015611bbd576020820181803683370190505b506040518563ffffffff1660e01b8152600401611bdd9493929190612b66565b5f604051808303815f87803b158015611bf4575f5ffd5b505af1158015611c06573d5f5f3e3d5ffd5b505060019099019850611a32975050505050505050565b604080515f808252602082019092526001600160a01b038416908390604051611c469190612bb8565b5f6040518083038185875af1925050503d805f8114611c80576040519150601f19603f3d011682016040523d82523d5f602084013e611c85565b606091505b5050905080611ce25760405162461bcd60e51b8152602060048201526024808201527f556e69737761705632526f757465723a204d4f4e5f5452414e534645525f46416044820152631253115160e21b6064820152608401610356565b505050565b6040516001600160a01b03838116602483015260448201839052611ce291859182169063a9059cbb906064016119f8565b6060600282511015611d6c5760405162461bcd60e51b815260206004820152601e60248201527f556e697377617056324c6962726172793a20494e56414c49445f5041544800006044820152606401610356565b815167ffffffffffffffff811115611d8657611d866126bc565b604051908082528060200260200182016040528015611daf578160200160208202803683370190505b509050828160018351611dc29190612939565b81518110611dd257611dd261294c565b6020026020010181815250505f60018351611ded9190612939565b90505b80156118f1575f80611e328786611e08600187612939565b81518110611e1857611e1861294c565b602002602001015187868151811061188b5761188b61294c565b91509150611e5a848481518110611e4b57611e4b61294c565b602002602001015183836123b1565b84611e66600186612939565b81518110611e7657611e7661294c565b60200260200101818152505050508080611e8f90612bce565b915050611df0565b60405163e6a4390560e01b81526001600160a01b03878116600483015286811660248301525f91829182917f00000000000000000000000000000000000000000000000000000000000000009091169063e6a4390590604401602060405180830381865afa158015611f0b573d5f5f3e3d5ffd5b505050506040513d601f19601f82011682018060405250810190611f2f9190612be3565b6001600160a01b031603611fd0576040516364e329cb60e11b81526001600160a01b03898116600483015288811660248301527f0000000000000000000000000000000000000000000000000000000000000000169063c9c65396906044016020604051808303815f875af1158015611faa573d5f5f3e3d5ffd5b505050506040513d601f19601f82011682018060405250810190611fce9190612be3565b505b5f5f611ffd7f00000000000000000000000000000000000000000000000000000000000000008b8b6121a7565b91509150815f14801561200e575080155b1561201e578793508692506120a4565b5f61202a898484612491565b905087811161205e57858110156120535760405162461bcd60e51b815260040161035690612b0d565b8894509250826120a2565b5f61206a898486612491565b90508981111561207c5761207c612536565b8781101561209c5760405162461bcd60e51b815260040161035690612ac7565b94508793505b505b5050965096945050505050565b5f5f826001600160a01b0316846001600160a01b0316036121225760405162461bcd60e51b815260206004820152602560248201527f556e697377617056324c6962726172793a204944454e544943414c5f41444452604482015264455353455360d81b6064820152608401610356565b826001600160a01b0316846001600160a01b031610612142578284612145565b83835b90925090506001600160a01b0382166121a05760405162461bcd60e51b815260206004820152601e60248201527f556e697377617056324c6962726172793a205a45524f5f4144445245535300006044820152606401610356565b9250929050565b5f5f5f6121b485856120b1565b5090505f5f6121c48888886118f9565b6001600160a01b0316630902f1ac6040518163ffffffff1660e01b8152600401606060405180830381865afa1580156121ff573d5f5f3e3d5ffd5b505050506040513d601f19601f820116820180604052508101906122239190612c14565b506001600160701b031691506001600160701b03169150826001600160a01b0316876001600160a01b03161461225a57808261225d565b81815b90999098509650505050505050565b5f5f84116122d05760405162461bcd60e51b815260206004820152602b60248201527f556e697377617056324c6962726172793a20494e53554646494349454e545f4960448201526a1394155517d05353d5539560aa1b6064820152608401610356565b5f831180156122de57505f82115b6122fa5760405162461bcd60e51b815260040161035690612c60565b5f612307856103e5612ca8565b90505f6123148483612ca8565b90505f82612324876103e8612ca8565b61232e9190612b53565b905061233a8183612cbf565b979650505050505050565b5f5f60205f8451602086015f885af180612364576040513d5f823e3d81fd5b50505f513d9150811561237b578060011415612388565b6001600160a01b0384163b155b15611a2a57604051635274afe760e01b81526001600160a01b0385166004820152602401610356565b5f5f84116124165760405162461bcd60e51b815260206004820152602c60248201527f556e697377617056324c6962726172793a20494e53554646494349454e545f4f60448201526b155514155517d05353d5539560a21b6064820152608401610356565b5f8311801561242457505f82115b6124405760405162461bcd60e51b815260040161035690612c60565b5f61244b8585612ca8565b612457906103e8612ca8565b90505f6124648685612939565b612470906103e5612ca8565b905061247c8183612cbf565b612487906001612b53565b9695505050505050565b5f5f84116124ef5760405162461bcd60e51b815260206004820152602560248201527f556e697377617056324c6962726172793a20494e53554646494349454e545f416044820152641353d5539560da1b6064820152608401610356565b5f831180156124fd57505f82115b6125195760405162461bcd60e51b815260040161035690612c60565b826125248386612ca8565b61252e9190612cbf565b949350505050565b634e487b7160e01b5f52600160045260245ffd5b5f5f83601f84011261255a575f5ffd5b50813567ffffffffffffffff811115612571575f5ffd5b6020830191508360208260051b85010111156121a0575f5ffd5b6001600160a01b038116811461259f575f5ffd5b50565b80356125ad8161258b565b919050565b5f5f5f5f5f5f60a087890312156125c7575f5ffd5b8635955060208701359450604087013567ffffffffffffffff8111156125eb575f5ffd5b6125f789828a0161254a565b909550935050606087013561260b8161258b565b95989497509295919493608090920135925050565b602080825282518282018190525f918401906040840190835b81811015612657578351835260209384019390920191600101612639565b509095945050505050565b5f5f5f5f5f5f60c08789031215612677575f5ffd5b86356126828161258b565b955060208701359450604087013593506060870135925060808701356126a78161258b565b9598949750929591949360a090920135925050565b634e487b7160e01b5f52604160045260245ffd5b5f5f604083850312156126e1575f5ffd5b82359150602083013567ffffffffffffffff8111156126fe575f5ffd5b8301601f8101851361270e575f5ffd5b803567ffffffffffffffff811115612728576127286126bc565b8060051b604051601f19603f830116810181811067ffffffffffffffff82111715612755576127556126bc565b604052918252602081840181019290810188841115612772575f5ffd5b6020850194505b838510156127985761278a856125a2565b815260209485019401612779565b50809450505050509250929050565b5f5f5f5f5f608086880312156127bb575f5ffd5b85359450602086013567ffffffffffffffff8111156127d8575f5ffd5b6127e48882890161254a565b90955093505060408601356127f88161258b565b949793965091946060013592915050565b5f5f5f5f5f5f5f60e0888a03121561281f575f5ffd5b873561282a8161258b565b9650602088013561283a8161258b565b955060408801359450606088013593506080880135925060a088013561285f8161258b565b96999598509396929591949193505060c09091013590565b5f5f5f5f5f5f5f5f610100898b03121561288f575f5ffd5b883561289a8161258b565b975060208901356128aa8161258b565b965060408901359550606089013594506080890135935060a0890135925060c08901356128d68161258b565b979a969950949793969295919450919260e001359150565b60208082526018908201527f556e69737761705632526f757465723a20455850495245440000000000000000604082015260600190565b634e487b7160e01b5f52601160045260245ffd5b8181038181111561079357610793612925565b634e487b7160e01b5f52603260045260245ffd5b5f60208284031215612970575f5ffd5b813561297b8161258b565b9392505050565b6020808252601d908201527f556e69737761705632526f757465723a20494e56414c49445f50415448000000604082015260600190565b6020808252602b908201527f556e69737761705632526f757465723a20494e53554646494349454e545f4f5560408201526a1514155517d05353d5539560aa1b606082015260800190565b6001600160a01b039384168152919092166020820152604081019190915260600190565b5f60208284031215612a38575f5ffd5b8151801515811461297b575f5ffd5b5f60208284031215612a57575f5ffd5b5051919050565b60208082526027908201527f556e69737761705632526f757465723a204558434553534956455f494e50555460408201526617d05353d5539560ca1b606082015260800190565b5f5f60408385031215612ab6575f5ffd5b505080516020909101519092909150565b60208082526026908201527f556e69737761705632526f757465723a20494e53554646494349454e545f415f604082015265105353d5539560d21b606082015260800190565b60208082526026908201527f556e69737761705632526f757465723a20494e53554646494349454e545f425f604082015265105353d5539560d21b606082015260800190565b8082018082111561079357610793612925565b84815283602082015260018060a01b0383166040820152608060608201525f8251806080840152806020850160a085015e5f60a0828501015260a0601f19601f83011684010191505095945050505050565b5f82518060208501845e5f920191825250919050565b5f81612bdc57612bdc612925565b505f190190565b5f60208284031215612bf3575f5ffd5b815161297b8161258b565b80516001600160701b03811681146125ad575f5ffd5b5f5f5f60608486031215612c26575f5ffd5b612c2f84612bfe565b9250612c3d60208501612bfe565b9150604084015163ffffffff81168114612c55575f5ffd5b809150509250925092565b60208082526028908201527f556e697377617056324c6962726172793a20494e53554646494349454e545f4c604082015267495155494449545960c01b606082015260800190565b808202811582820484141761079357610793612925565b5f82612cd957634e487b7160e01b5f52601260045260245ffd5b50049056fea2646970667358221220c2e1240f2d9a36d15f4d47198ed2db679fdb9e16000bf039d411151775fa6a0164736f6c634300081c0033",
  "linkReferences": {},
  "deployedLinkReferences": {},
  "immutableReferences": {
    "5716": [
      {
        "length": 32,
        "start": 629
      },
      {
        "length": 32,
        "start": 997
      },
      {
        "length": 32,
        "start": 1166
      },
      {
        "length": 32,
        "start": 1898
      },
      {
        "length": 32,
        "start": 2038
      },
      {
        "length": 32,
        "start": 2800
      },
      {
        "length": 32,
        "start": 3136
      },
      {
        "length": 32,
        "start": 3522
      },
      {
        "length": 32,
        "start": 3691
      },
      {
        "length": 32,
        "start": 3971
      },
      {
        "length": 32,
        "start": 4158
      },
      {
        "length": 32,
        "start": 4346
      },
      {
        "length": 32,
        "start": 4754
      },
      {
        "length": 32,
        "start": 4853
      },
      {
        "length": 32,
        "start": 5402
      },
      {
        "length": 32,
        "start": 5751
      },
      {
        "length": 32,
        "start": 6923
      },
      {
        "length": 32,
        "start": 7003
      },
      {
        "length": 32,
        "start": 7876
      },
      {
        "length": 32,
        "start": 8036
      },
      {
        "length": 32,
        "start": 8151
      }
    ],
    "5718": [
      {
        "length": 32,
        "start": 236
      },
      {
        "length": 32,
        "start": 785
      },
      {
        "length": 32,
        "start": 873
      },
      {
        "length": 32,
        "start": 1427
      },
      {
        "length": 32,
        "start": 1686
      },
      {
        "length": 32,
        "start": 1774
      },
      {
        "length": 32,
        "start": 1987
      },
      {
        "length": 32,
        "start": 2072
      },
      {
        "length": 32,
        "start": 2226
      },
      {
        "length": 32,
        "start": 2371
      },
      {
        "length": 32,
        "start": 2678
      },
      {
        "length": 32,
        "start": 2949
      },
      {
        "length": 32,
        "start": 3086
      },
      {
        "length": 32,
        "start": 3847
      },
      {
        "length": 32,
        "start": 5280
      },
      {
        "length": 32,
        "start": 5564
      },
      {
        "length": 32,
        "start": 5701
      }
    ]
  },
  "inputSourceName": "project/contracts/dex/UniswapV2Router02.sol",
  "buildInfoId": "solc-0_8_28-71a25defabde4308678380d15b61be687e33a373"
}