{
  "_format": "hh3-artifact-1",
  "contractName": "UniswapV2Factory",
  "sourceName": "contracts/dex/UniswapV2Factory.sol",
  "abi": [
    {
      "inputs": [
        {
          "internalType": "address",
          "name": "_feeToSetter",
          "type": "address"
        }
      ],
      "stateMutability": "nonpayable",
      "type": "constructor"
    },
    {
      "anonymous": false,
      "inputs": [
        {
          "indexed": true,
          "internalType": "address",
          "name": "token0",
          "type": "address"
        },
        {
          "indexed": true,
          "internalType": "address",
          "name": "token1",
          "type": "address"
        },
        {
          "indexed": false,
          "internalType": "address",
          "name": "pair",
          "type": "address"
        },
        {
          "indexed": false,
          "internalType": "uint256",
          "name": "",
          "type": "uint256"
        }
      ],
      "name": "PairCreated",
      "type": "event"
    },
    {
      "inputs": [
        {
          "internalType": "uint256",
          "name": "",
          "type": "uint256"
        }
      ],
      "name": "allPairs",
      "outputs": [
        {
          "internalType": "address",
          "name": "",
          "type": "address"
        }
      ],
      "stateMutability": "view",
      "type": "function"
    },
    {
      "inputs": [],
      "name": "allPairsLength",
      "outputs": [
        {
          "internalType": "uint256",
          "name": "",
          "type": "uint256"
        }
      ],
      "stateMutability": "view",
      "type": "function"
    },
    {
      "inputs": [
        {
          "internalType": "address",
          "name": "tokenA",
          "type": "address"
        },
        {
          "internalType": "address",
          "name": "tokenB",
          "type": "address"
        }
      ],
      "name": "createPair",
      "outputs": [
        {
          "internalType": "address",
          "name": "pair",
          "type": "address"
        }
      ],
      "stateMutability": "nonpayable",
      "type": "function"
    },
    {
      "inputs": [],
      "name": "feeTo",
      "outputs": [
        {
          "internalType": "address",
          "name": "",
          "type": "address"
        }
      ],
      "stateMutability": "view",
      "type": "function"
    },
    {
      "inputs": [],
      "name": "feeToSetter",
      "outputs": [
        {
          "internalType": "address",
          "name": "",
          "type": "address"
        }
      ],
      "stateMutability": "view",
      "type": "function"
    },
    {
      "inputs": [],
      "name": "getInitCodeHash",
      "outputs": [
        {
          "internalType": "bytes32",
          "name": "",
          "type": "bytes32"
        }
      ],
      "stateMutability": "pure",
      "type": "function"
    },
    {
      "inputs": [
        {
          "internalType": "address",
          "name": "",
          "type": "address"
        },
        {
          "internalType": "address",
          "name": "",
          "type": "address"
        }
      ],
      "name": "getPair",
      "outputs": [
        {
          "internalType": "address",
          "name": "",
          "type": "address"
        }
      ],
      "stateMutability": "view",
      "type": "function"
    },
    {
      "inputs": [
        {
          "internalType": "address",
          "name": "_feeTo",
          "type": "address"
        }
      ],
      "name": "setFeeTo",
      "outputs": [],
      "stateMutability": "nonpayable",
      "type": "function"
    },
    {
      "inputs": [
        {
          "internalType": "address",
          "name": "_feeToSetter",
          "type": "address"
        }
      ],
      "name": "setFeeToSetter",
      "outputs": [],
      "stateMutability": "nonpayable",
      "type": "function"
    }
  ],
  "bytecode": "0x6080604052348015600e575f5ffd5b506040516128f13803806128f1833981016040819052602b91604f565b600180546001600160a01b0319166001600160a01b0392909216919091179055607a565b5f60208284031215605e575f5ffd5b81516001600160a01b03811681146073575f5ffd5b9392505050565b61286a806100875f395ff3fe608060405234801561000f575f5ffd5b5060043610610090575f3560e01c8063574f2ba311610063578063574f2ba3146100ff578063a2e74af614610107578063c9c653961461011c578063e6a439051461012f578063f46901ed14610162575f5ffd5b8063017e7e5814610094578063094b7415146100c35780631e3dd18b146100d65780635431927d146100e9575b5f5ffd5b5f546100a6906001600160a01b031681565b6040516001600160a01b0390911681526020015b60405180910390f35b6001546100a6906001600160a01b031681565b6100a66100e43660046105b7565b610175565b6100f161019d565b6040519081526020016100ba565b6003546100f1565b61011a6101153660046105e9565b6101ce565b005b6100a661012a366004610609565b610246565b6100a661013d366004610609565b600260209081525f92835260408084209091529082529020546001600160a01b031681565b61011a6101703660046105e9565b610538565b60038181548110610184575f80fd5b5f918252602090912001546001600160a01b0316905081565b5f604051806020016101ae906105aa565b6020820181038252601f19601f8201166040525080519060200120905090565b6001546001600160a01b031633146102245760405162461bcd60e51b81526020600482015260146024820152732ab734b9bbb0b82b191d102327a92124a22222a760611b60448201526064015b60405180910390fd5b600180546001600160a01b0319166001600160a01b0392909216919091179055565b5f816001600160a01b0316836001600160a01b0316036102a85760405162461bcd60e51b815260206004820152601e60248201527f556e697377617056323a204944454e544943414c5f4144445245535345530000604482015260640161021b565b5f5f836001600160a01b0316856001600160a01b0316106102ca5783856102cd565b84845b90925090506001600160a01b0382166103285760405162461bcd60e51b815260206004820152601760248201527f556e697377617056323a205a45524f5f41444452455353000000000000000000604482015260640161021b565b6001600160a01b038281165f908152600260209081526040808320858516845290915290205416156103955760405162461bcd60e51b8152602060048201526016602482015275556e697377617056323a20504149525f45584953545360501b604482015260640161021b565b5f604051806020016103a6906105aa565b601f1982820381018352601f9091011660408190526bffffffffffffffffffffffff19606086811b8216602084015285901b1660348201529091505f90604801604051602081830303815290604052805190602001209050808251602084015ff560405163485cc95560e01b81526001600160a01b03868116600483015285811660248301529196509086169063485cc955906044015f604051808303815f87803b158015610453575f5ffd5b505af1158015610465573d5f5f3e3d5ffd5b505050506001600160a01b038481165f8181526002602081815260408084208987168086529083528185208054978d166001600160a01b031998891681179091559383528185208686528352818520805488168517905560038054600181018255958190527fc2575a0e9e593c00f959f8c92f12db2869c3395a3b0502d05e2516446f71f85b9095018054909716841790965592548351928352908201527f0d3648bd0f6ba80134a33ba9275ac585d9d315f0ad8355cddefde31afa28d0e9910160405180910390a35050505092915050565b6001546001600160a01b031633146105895760405162461bcd60e51b81526020600482015260146024820152732ab734b9bbb0b82b191d102327a92124a22222a760611b604482015260640161021b565b5f80546001600160a01b0319166001600160a01b0392909216919091179055565b6121fa8061063b83390190565b5f602082840312156105c7575f5ffd5b5035919050565b80356001600160a01b03811681146105e4575f5ffd5b919050565b5f602082840312156105f9575f5ffd5b610602826105ce565b9392505050565b5f5f6040838503121561061a575f5ffd5b610623836105ce565b9150610631602084016105ce565b9050925092905056fe60806040526001600c55348015610014575f5ffd5b50600580546001600160a01b03191633179055604080518082018252600a8152692ab734b9bbb0b8102b1960b11b6020918201528151808301835260018152603160f81b9082015281517f8b73c3c69bb8fe3d512ecc4cf759cc79239f7b179b0ffacaa9a75d522b39400f818301527fbfcc8ef98ffbf7b6c3fec7bf5185b566b9863e35a9d83acd49ad6824b5969738818401527fc89efdaa54c0f20c7adf612882df0950f5a951637e0307cdcb4c672f298b8bc660608201524660808201523060a0808301919091528351808303909101815260c090910190925281519101206003556120f5806101055f395ff3fe608060405234801561000f575f5ffd5b50600436106101a1575f3560e01c80636a627842116100f3578063ba9a7a5611610093578063d21220a71161006e578063d21220a7146103fc578063d505accf1461040f578063dd62ed3e14610422578063fff6cae91461044c575f5ffd5b8063ba9a7a56146103cd578063bc25cf77146103d6578063c45a0155146103e9575f5ffd5b80637ecebe00116100ce5780637ecebe001461034e57806389afcb441461036d57806395d89b4114610395578063a9059cbb146103ba575f5ffd5b80636a6278421461031357806370a08231146103265780637464fc3d14610345575f5ffd5b806323b872dd1161015e5780633644e515116101395780633644e515146102e5578063485cc955146102ee5780635909c0d5146103015780635a3d54931461030a575f5ffd5b806323b872dd1461029157806330adf81f146102a4578063313ce567146102cb575f5ffd5b8063022c0d9f146101a557806306fdde03146101ba5780630902f1ac146101f9578063095ea7b31461022d5780630dfe16811461025057806318160ddd1461027b575b5f5ffd5b6101b86101b3366004611d27565b610454565b005b6101e36040518060400160405280600a8152602001692ab734b9bbb0b8102b1960b11b81525081565b6040516101f09190611db7565b60405180910390f35b6102016108f1565b604080516001600160701b03948516815293909216602084015263ffffffff16908201526060016101f0565b61024061023b366004611dec565b61091b565b60405190151581526020016101f0565b600654610263906001600160a01b031681565b6040516001600160a01b0390911681526020016101f0565b6102835f5481565b6040519081526020016101f0565b61024061029f366004611e16565b610987565b6102837f6e71edae12b1b97f4d1f60370fef10105fa2faae0126114a169c64845d6126c981565b6102d3601281565b60405160ff90911681526020016101f0565b61028360035481565b6101b86102fc366004611e54565b610a18565b61028360095481565b610283600a5481565b610283610321366004611e8b565b610a97565b610283610334366004611e8b565b60016020525f908152604090205481565b610283600b5481565b61028361035c366004611e8b565b60046020525f908152604090205481565b61038061037b366004611e8b565b610d57565b604080519283526020830191909152016101f0565b6101e3604051806040016040528060068152602001652aa72496ab1960d11b81525081565b6102406103c8366004611dec565b6110ac565b6102836103e881565b6101b86103e4366004611e8b565b6110c1565b600554610263906001600160a01b031681565b600754610263906001600160a01b031681565b6101b861041d366004611ea6565b6111d1565b610283610430366004611e54565b600260209081525f928352604080842090915290825290205481565b6101b8611431565b600c5460011461047f5760405162461bcd60e51b815260040161047690611f17565b60405180910390fd5b5f600c558415158061049057505f84115b6104ea5760405162461bcd60e51b815260206004820152602560248201527f556e697377617056323a20494e53554646494349454e545f4f55545055545f416044820152641353d5539560da1b6064820152608401610476565b5f5f6104f46108f1565b5091509150816001600160701b0316871080156105195750806001600160701b031686105b61056f5760405162461bcd60e51b815260206004820152602160248201527f556e697377617056323a20494e53554646494349454e545f4c495155494449546044820152605960f81b6064820152608401610476565b6006546007545f9182916001600160a01b039182169190811690891682148015906105ac5750806001600160a01b0316896001600160a01b031614155b6105f05760405162461bcd60e51b8152602060048201526015602482015274556e697377617056323a20494e56414c49445f544f60581b6044820152606401610476565b8a1561060157610601828a8d611550565b891561061257610612818a8c611550565b6040516370a0823160e01b81523060048201526001600160a01b038316906370a0823190602401602060405180830381865afa158015610654573d5f5f3e3d5ffd5b505050506040513d601f19601f820116820180604052508101906106789190611f42565b6040516370a0823160e01b81523060048201529094506001600160a01b038216906370a0823190602401602060405180830381865afa1580156106bd573d5f5f3e3d5ffd5b505050506040513d601f19601f820116820180604052508101906106e19190611f42565b925050505f89856001600160701b03166106fb9190611f6d565b8311610707575f610724565b61071a8a6001600160701b038716611f6d565b6107249084611f6d565b90505f61073a8a6001600160701b038716611f6d565b8311610746575f610763565b6107598a6001600160701b038716611f6d565b6107639084611f6d565b90505f82118061077257505f81115b6107ca5760405162461bcd60e51b8152602060048201526024808201527f556e697377617056323a20494e53554646494349454e545f494e5055545f414d60448201526313d5539560e21b6064820152608401610476565b5f6107d6836003611f80565b6107e2866103e8611f80565b6107ec9190611f6d565b90505f6107fa836003611f80565b610806866103e8611f80565b6108109190611f6d565b90506108286001600160701b03808916908a16611f80565b61083590620f4240611f80565b61083f8284611f80565b101561087c5760405162461bcd60e51b815260206004820152600c60248201526b556e697377617056323a204b60a01b6044820152606401610476565b505061088a84848888611696565b60408051838152602081018390529081018c9052606081018b90526001600160a01b038a169033907fd78ad95fa46c994b6551d0da85fc275fe613ce37657fb8d5e3d130840159d8229060800160405180910390a350506001600c55505050505050505050565b6008546001600160701b0380821692600160701b830490911691600160e01b900463ffffffff1690565b335f8181526002602090815260408083206001600160a01b038716808552925280832085905551919290917f8c5be1e5ebec7d5bd14f71427d1e84f3dd0314c0f7b2291e5b200ac8c7c3b925906109759086815260200190565b60405180910390a35060015b92915050565b6001600160a01b0383165f9081526002602090815260408083203384529091528120545f1914610a03576001600160a01b0384165f9081526002602090815260408083203384529091529020546109df908390611f6d565b6001600160a01b0385165f9081526002602090815260408083203384529091529020555b610a0e84848461187d565b5060019392505050565b6005546001600160a01b03163314610a695760405162461bcd60e51b81526020600482015260146024820152732ab734b9bbb0b82b191d102327a92124a22222a760611b6044820152606401610476565b600680546001600160a01b039384166001600160a01b03199182161790915560078054929093169116179055565b5f600c54600114610aba5760405162461bcd60e51b815260040161047690611f17565b5f600c81905580610ac96108f1565b506006546040516370a0823160e01b81523060048201529294509092505f916001600160a01b03909116906370a0823190602401602060405180830381865afa158015610b18573d5f5f3e3d5ffd5b505050506040513d601f19601f82011682018060405250810190610b3c9190611f42565b6007546040516370a0823160e01b81523060048201529192505f916001600160a01b03909116906370a0823190602401602060405180830381865afa158015610b87573d5f5f3e3d5ffd5b505050506040513d601f19601f82011682018060405250810190610bab9190611f42565b90505f610bc16001600160701b03861684611f6d565b90505f610bd76001600160701b03861684611f6d565b90505f610be4878761192f565b5f8054919250819003610c23576103e8610c06610c018587611f80565b611a63565b610c109190611f6d565b9850610c1e5f6103e8611bbb565b610c6a565b610c676001600160701b038916610c3a8387611f80565b610c449190611fab565b6001600160701b038916610c588487611f80565b610c629190611fab565b611c49565b98505b5f8911610cca5760405162461bcd60e51b815260206004820152602860248201527f556e697377617056323a20494e53554646494349454e545f4c495155494449546044820152671657d3525395115160c21b6064820152608401610476565b610cd48a8a611bbb565b610ce086868a8a611696565b8115610d0957600854610d05906001600160701b03600160701b820481169116611f80565b600b555b604080518581526020810185905233917f4c209b5fc8ad50758f13e2e1088ba56a560dff690a1c6fef26394f4c03821c4f910160405180910390a250506001600c5550949695505050505050565b5f5f600c54600114610d7b5760405162461bcd60e51b815260040161047690611f17565b5f600c81905580610d8a6108f1565b506006546007546040516370a0823160e01b81523060048201529395509193506001600160a01b03908116929116905f9083906370a0823190602401602060405180830381865afa158015610de1573d5f5f3e3d5ffd5b505050506040513d601f19601f82011682018060405250810190610e059190611f42565b6040516370a0823160e01b81523060048201529091505f906001600160a01b038416906370a0823190602401602060405180830381865afa158015610e4c573d5f5f3e3d5ffd5b505050506040513d601f19601f82011682018060405250810190610e709190611f42565b305f90815260016020526040812054919250610e8c888861192f565b5f5490915080610e9c8685611f80565b610ea69190611fab565b9a5080610eb38585611f80565b610ebd9190611fab565b99505f8b118015610ecd57505f8a115b610f2a5760405162461bcd60e51b815260206004820152602860248201527f556e697377617056323a20494e53554646494349454e545f4c495155494449546044820152671657d0955493915160c21b6064820152608401610476565b610f343084611c5b565b610f3f878d8d611550565b610f4a868d8c611550565b6040516370a0823160e01b81523060048201526001600160a01b038816906370a0823190602401602060405180830381865afa158015610f8c573d5f5f3e3d5ffd5b505050506040513d601f19601f82011682018060405250810190610fb09190611f42565b6040516370a0823160e01b81523060048201529095506001600160a01b038716906370a0823190602401602060405180830381865afa158015610ff5573d5f5f3e3d5ffd5b505050506040513d601f19601f820116820180604052508101906110199190611f42565b935061102785858b8b611696565b81156110505760085461104c906001600160701b03600160701b820481169116611f80565b600b555b604080518c8152602081018c90526001600160a01b038e169133917fdccd412f0b1252819cb1fd330b93224ca42612892bb3f4f789976e6d81936496910160405180910390a35050505050505050506001600c81905550915091565b5f6110b833848461187d565b50600192915050565b600c546001146110e35760405162461bcd60e51b815260040161047690611f17565b5f600c556006546007546008546040516370a0823160e01b81523060048201526001600160a01b03938416939092169161117f91849186916001600160701b03169083906370a08231906024015b602060405180830381865afa15801561114c573d5f5f3e3d5ffd5b505050506040513d601f19601f820116820180604052508101906111709190611f42565b61117a9190611f6d565b611550565b6008546040516370a0823160e01b81523060048201526111c79183918691600160701b90046001600160701b0316906001600160a01b038416906370a0823190602401611131565b50506001600c5550565b428410156112165760405162461bcd60e51b8152602060048201526012602482015271155b9a5cddd85c158c8e881156141254915160721b6044820152606401610476565b6003546001600160a01b0388165f90815260046020526040812080549192917f6e71edae12b1b97f4d1f60370fef10105fa2faae0126114a169c64845d6126c9918b918b918b91908761126883611fbe565b909155506040805160208101969096526001600160a01b0394851690860152929091166060840152608083015260a082015260c0810187905260e001604051602081830303815290604052805190602001206040516020016112e192919061190160f01b81526002810192909252602282015260420190565b60408051601f1981840301815282825280516020918201205f80855291840180845281905260ff88169284019290925260608301869052608083018590529092509060019060a0016020604051602081039080840390855afa158015611349573d5f5f3e3d5ffd5b5050604051601f1901519150506001600160a01b0381161580159061137f5750886001600160a01b0316816001600160a01b0316145b6113cb5760405162461bcd60e51b815260206004820152601c60248201527f556e697377617056323a20494e56414c49445f5349474e4154555245000000006044820152606401610476565b6001600160a01b038981165f818152600260209081526040808320948d16808452948252918290208b905590518a81527f8c5be1e5ebec7d5bd14f71427d1e84f3dd0314c0f7b2291e5b200ac8c7c3b925910160405180910390a3505050505050505050565b600c546001146114535760405162461bcd60e51b815260040161047690611f17565b5f600c556006546040516370a0823160e01b8152306004820152611549916001600160a01b0316906370a0823190602401602060405180830381865afa15801561149f573d5f5f3e3d5ffd5b505050506040513d601f19601f820116820180604052508101906114c39190611f42565b6007546040516370a0823160e01b81523060048201526001600160a01b03909116906370a0823190602401602060405180830381865afa158015611509573d5f5f3e3d5ffd5b505050506040513d601f19601f8201168201806040525081019061152d9190611f42565b6008546001600160701b0380821691600160701b900416611696565b6001600c55565b604080518082018252601981527f7472616e7366657228616464726573732c75696e74323536290000000000000060209182015281516001600160a01b0385811660248301526044808301869052845180840390910181526064909201845291810180516001600160e01b031663a9059cbb60e01b17905291515f9283928716916115db9190611fd6565b5f604051808303815f865af19150503d805f8114611614576040519150601f19603f3d011682016040523d82523d5f602084013e611619565b606091505b50915091508180156116435750805115806116435750808060200190518101906116439190611fec565b61168f5760405162461bcd60e51b815260206004820152601a60248201527f556e697377617056323a205452414e534645525f4641494c45440000000000006044820152606401610476565b5050505050565b6001600160701b0384118015906116b457506001600160701b038311155b6116f65760405162461bcd60e51b8152602060048201526013602482015272556e697377617056323a204f564552464c4f5760681b6044820152606401610476565b5f6117066401000000004261200b565b6008549091505f9061172590600160e01b900463ffffffff168361201e565b90505f8163ffffffff1611801561174457506001600160701b03841615155b801561175857506001600160701b03831615155b156117e5578063ffffffff166117808561177186611ce4565b6001600160e01b031690611cfc565b6001600160e01b03166117939190611f80565b60095f8282546117a3919061203a565b909155505063ffffffff81166117bc8461177187611ce4565b6001600160e01b03166117cf9190611f80565b600a5f8282546117df919061203a565b90915550505b6008805463ffffffff8416600160e01b026001600160e01b036001600160701b03898116600160701b9081026001600160e01b03199095168c83161794909417918216831794859055604080519382169282169290921783529290930490911660208201527f1c411e9a96e071241c2f21f7726b17ae89e3cab4c78be50e062b03a9fffbbad1910160405180910390a1505050505050565b6001600160a01b0383165f908152600160205260409020546118a0908290611f6d565b6001600160a01b038085165f9081526001602052604080822093909355908416815220546118cf90829061203a565b6001600160a01b038084165f8181526001602052604090819020939093559151908516907fddf252ad1be2c89b69c2b068fc378daa952ba7f163c4a11628f55a4df523b3ef906119229085815260200190565b60405180910390a3505050565b5f5f60055f9054906101000a90046001600160a01b03166001600160a01b031663017e7e586040518163ffffffff1660e01b8152600401602060405180830381865afa158015611981573d5f5f3e3d5ffd5b505050506040513d601f19601f820116820180604052508101906119a5919061204d565b600b546001600160a01b038216158015945091925090611a50578015611a4b575f6119df610c016001600160701b03808816908916611f80565b90505f6119eb83611a63565b905080821115611a48575f611a008284611f6d565b5f54611a0c9190611f80565b90505f82611a1b856005611f80565b611a25919061203a565b90505f611a328284611fab565b90508015611a4457611a448782611bbb565b5050505b50505b611a5b565b8015611a5b575f600b555b505092915050565b5f60018211611a70575090565b816001600160801b8210611a895760809190911c9060401b5b680100000000000000008210611aa45760409190911c9060201b5b6401000000008210611abb5760209190911c9060101b5b620100008210611ad05760109190911c9060081b5b6101008210611ae45760089190911c9060041b5b60108210611af75760049190911c9060021b5b60048210611b035760011b5b600302600190811c90818581611b1b57611b1b611f97565b048201901c90506001818581611b3357611b33611f97565b048201901c90506001818581611b4b57611b4b611f97565b048201901c90506001818581611b6357611b63611f97565b048201901c90506001818581611b7b57611b7b611f97565b048201901c90506001818581611b9357611b93611f97565b048201901c9050611bb2818581611bac57611bac611f97565b04821190565b90039392505050565b805f54611bc8919061203a565b5f9081556001600160a01b038316815260016020526040902054611bed90829061203a565b6001600160a01b0383165f818152600160205260408082209390935591519091907fddf252ad1be2c89b69c2b068fc378daa952ba7f163c4a11628f55a4df523b3ef90611c3d9085815260200190565b60405180910390a35050565b5f8282188284100282185b9392505050565b6001600160a01b0382165f90815260016020526040902054611c7e908290611f6d565b6001600160a01b0383165f9081526001602052604081209190915554611ca5908290611f6d565b5f9081556040518281526001600160a01b038416907fddf252ad1be2c89b69c2b068fc378daa952ba7f163c4a11628f55a4df523b3ef90602001611c3d565b5f610981600160701b6001600160701b038416612068565b5f611c546001600160701b03831684612091565b6001600160a01b0381168114611d24575f5ffd5b50565b5f5f5f5f5f60808688031215611d3b575f5ffd5b85359450602086013593506040860135611d5481611d10565b9250606086013567ffffffffffffffff811115611d6f575f5ffd5b8601601f81018813611d7f575f5ffd5b803567ffffffffffffffff811115611d95575f5ffd5b886020828401011115611da6575f5ffd5b959894975092955050506020019190565b602081525f82518060208401528060208501604085015e5f604082850101526040601f19601f83011684010191505092915050565b5f5f60408385031215611dfd575f5ffd5b8235611e0881611d10565b946020939093013593505050565b5f5f5f60608486031215611e28575f5ffd5b8335611e3381611d10565b92506020840135611e4381611d10565b929592945050506040919091013590565b5f5f60408385031215611e65575f5ffd5b8235611e7081611d10565b91506020830135611e8081611d10565b809150509250929050565b5f60208284031215611e9b575f5ffd5b8135611c5481611d10565b5f5f5f5f5f5f5f60e0888a031215611ebc575f5ffd5b8735611ec781611d10565b96506020880135611ed781611d10565b95506040880135945060608801359350608088013560ff81168114611efa575f5ffd5b9699959850939692959460a0840135945060c09093013592915050565b602080825260119082015270155b9a5cddd85c158c8e881313d0d2d151607a1b604082015260600190565b5f60208284031215611f52575f5ffd5b5051919050565b634e487b7160e01b5f52601160045260245ffd5b8181038181111561098157610981611f59565b808202811582820484141761098157610981611f59565b634e487b7160e01b5f52601260045260245ffd5b5f82611fb957611fb9611f97565b500490565b5f60018201611fcf57611fcf611f59565b5060010190565b5f82518060208501845e5f920191825250919050565b5f60208284031215611ffc575f5ffd5b81518015158114611c54575f5ffd5b5f8261201957612019611f97565b500690565b63ffffffff828116828216039081111561098157610981611f59565b8082018082111561098157610981611f59565b5f6020828403121561205d575f5ffd5b8151611c5481611d10565b6001600160e01b03818116838216818102909216918183048114821517611a5b57611a5b611f59565b5f6001600160e01b038316806120a9576120a9611f97565b6001600160e01b0392909216919091049291505056fea264697066735822122029f9f479ae20ba7627a724560b2b6823b57afe5260604f7f6abd1a24c72a926764736f6c634300081c0033a26469706673582212206ccc7cb4b258d355e9542f29a17f3a2067976e8f8d2713b727925310a81a764064736f6c634300081c0033",
  "linkReferences": {},
  "deployedLinkReferences": {},
  "immutableReferences": {},
  "inputSourceName": "project/contracts/dex/UniswapV2Factory.sol",
  "buildInfoId": "solc-0_8_28-86d2e237cf3bd2fa28b7002b49d07e728f5c40ca"
}