{
  "_format": "hh3-artifact-1",
  "contractName": "PortfolioFactory",
  "sourceName": "contracts/core/SmartPortfolio.sol",
  "abi": [
    {
      "inputs": [
        {
          "internalType": "address",
          "name": "_router",
          "type": "address"
        }
      ],
      "stateMutability": "nonpayable",
      "type": "constructor"
    },
    {
      "anonymous": false,
      "inputs": [],
      "name": "FactoryPaused",
      "type": "event"
    },
    {
      "anonymous": false,
      "inputs": [],
      "name": "FactoryUnpaused",
      "type": "event"
    },
    {
      "anonymous": false,
      "inputs": [
        {
          "indexed": true,
          "internalType": "address",
          "name": "user",
          "type": "address"
        },
        {
          "indexed": false,
          "internalType": "address",
          "name": "portfolio",
          "type": "address"
        }
      ],
      "name": "PortfolioCreated",
      "type": "event"
    },
    {
      "inputs": [],
      "name": "createPortfolio",
      "outputs": [],
      "stateMutability": "nonpayable",
      "type": "function"
    },
    {
      "inputs": [
        {
          "internalType": "address",
          "name": "user",
          "type": "address"
        }
      ],
      "name": "getPortfolio",
      "outputs": [
        {
          "internalType": "address",
          "name": "",
          "type": "address"
        }
      ],
      "stateMutability": "view",
      "type": "function"
    },
    {
      "inputs": [],
      "name": "pauseFactory",
      "outputs": [],
      "stateMutability": "nonpayable",
      "type": "function"
    },
    {
      "inputs": [],
      "name": "paused",
      "outputs": [
        {
          "internalType": "bool",
          "name": "",
          "type": "bool"
        }
      ],
      "stateMutability": "view",
      "type": "function"
    },
    {
      "inputs": [],
      "name": "router",
      "outputs": [
        {
          "internalType": "address",
          "name": "",
          "type": "address"
        }
      ],
      "stateMutability": "view",
      "type": "function"
    },
    {
      "inputs": [],
      "name": "unpauseFactory",
      "outputs": [],
      "stateMutability": "nonpayable",
      "type": "function"
    },
    {
      "inputs": [
        {
          "internalType": "address",
          "name": "",
          "type": "address"
        }
      ],
      "name": "userPortfolios",
      "outputs": [
        {
          "internalType": "address",
          "name": "",
          "type": "address"
        }
      ],
      "stateMutability": "view",
      "type": "function"
    }
  ],
  "bytecode": "0x6080604052348015600e575f5ffd5b50604051611d1c380380611d1c833981016040819052602b916092565b6001600160a01b038116606f5760405162461bcd60e51b81526020600482015260086024820152670726f757465723d360c41b604482015260640160405180910390fd5b5f80546001600160a01b0319166001600160a01b039290921691909117905560bd565b5f6020828403121560a1575f5ffd5b81516001600160a01b038116811460b6575f5ffd5b9392505050565b611c52806100ca5f395ff3fe608060405234801561000f575f5ffd5b506004361061007a575f3560e01c8063b61920c111610058578063b61920c1146100b2578063b6a33a38146100f2578063eb22ae11146100fa578063f887ea4014610125575f5ffd5b80635c975abb1461007e578063929dd1e0146100a057806397ebad10146100aa575b5f5ffd5b60025461008b9060ff1681565b60405190151581526020015b60405180910390f35b6100a8610137565b005b6100a8610288565b6100da6100c0366004610300565b60016020525f90815260409020546001600160a01b031681565b6040516001600160a01b039091168152602001610097565b6100a86102bc565b6100da610108366004610300565b6001600160a01b039081165f908152600160205260409020541690565b5f546100da906001600160a01b031681565b60025460ff16156101805760405162461bcd60e51b815260206004820152600e60248201526d119858dd1bdc9e481c185d5cd95960921b60448201526064015b60405180910390fd5b335f908152600160205260409020546001600160a01b0316156101d65760405162461bcd60e51b815260206004820152600e60248201526d416c72656164792065786973747360901b6044820152606401610177565b5f805460405133916001600160a01b0316906101f1906102f3565b6001600160a01b03928316815291166020820152604001604051809103905ff080158015610221573d5f5f3e3d5ffd5b50335f8181526001602090815260409182902080546001600160a01b0319166001600160a01b038616908117909155915191825292935090917fbe04258394eb7f48ed40648f7e666f154b7572f9ac939c139973c858a16f4088910160405180910390a250565b6002805460ff191690556040517f0b78a02d373780a56de7f3f0ca03c5a14791791bf5670cf209b6a6b3c57f64e0905f90a1565b6002805460ff191660011790556040517f68c2f226081bbd1fb32de394726c9a02091892724c350d119acd5e9529f303d6905f90a1565b6118ef8061032e83390190565b5f60208284031215610310575f5ffd5b81356001600160a01b0381168114610326575f5ffd5b939250505056fe608060405234801561000f575f5ffd5b506040516118ef3803806118ef83398101604081905261002e916100dd565b60015f556001600160a01b0382161580159061005257506001600160a01b03811615155b6100915760405162461bcd60e51b815260206004820152600c60248201526b7a65726f206164647265737360a01b604482015260640160405180910390fd5b600180546001600160a01b039384166001600160a01b0319918216179091556002805492909316911617905561010e565b80516001600160a01b03811681146100d8575f5ffd5b919050565b5f5f604083850312156100ee575f5ffd5b6100f7836100c2565b9150610105602084016100c2565b90509250929050565b6117d48061011b5f395ff3fe608060405234801561000f575f5ffd5b50600436106100e5575f3560e01c806343ab265f1161008857806381a6c7551161006357806381a6c755146101d45780638456cb59146101dc5780638da5cb5b146101e4578063f887ea401461020f575f5ffd5b806343ab265f1461019a578063484685b0146101ad5780635c975abb146101c0575f5ffd5b8063200c5fbb116100c3578063200c5fbb1461013c5780633254ab33146101515780633a30ae77146101725780633f4ba83a14610192575f5ffd5b806306a5d642146100e95780630c9e1e8e146101065780630ed81e6d1461011b575b5f5ffd5b6100f1610222565b60405190151581526020015b60405180910390f35b61010e610285565b6040516100fd91906110c7565b61012e610129366004611185565b6102fa565b6040516100fd9291906111f8565b61014f61014a366004611236565b6105dd565b005b61016461015f3660046112a2565b6108d1565b6040519081526020016100fd565b610185610180366004611382565b610bda565b6040516100fd91906113ca565b61014f610c58565b6101646101a8366004611401565b610cc5565b61014f6101bb366004611401565b610d33565b6002546100f190600160a01b900460ff1681565b61014f610db3565b61014f610e44565b6001546101f7906001600160a01b031681565b6040516001600160a01b0390911681526020016100fd565b6002546101f7906001600160a01b031681565b6003545f90810361023257505f90565b5f805b60035481101561027c576003818154811061025257610252611421565b5f9182526020909120015461027290600160a01b900461ffff1683611449565b9150600101610235565b50606414919050565b60606003805480602002602001604051908101604052809291908181526020015f905b828210156102f1575f84815260209081902060408051808201909152908401546001600160a01b0381168252600160a01b900461ffff16818301528252600190920191016102a8565b50505050905090565b6002545f90606090600160a01b900460ff161561034157505060408051808201909152601081526f141bdc9d199bdb1a5bc81c185d5cd95960821b60208201525f906105d2565b855f0361037657505060408051808201909152600e81526d416d6f756e74206973207a65726f60901b60208201525f906105d2565b60028310156103b2575050604080518082019091526013815272092dcecc2d8d2c840e0c2e8d040d8cadccee8d606b1b60208201525f906105d2565b876001600160a01b031684845f8181106103ce576103ce611421565b90506020020160208101906103e39190611401565b6001600160a01b0316146104245750506040805180820190915260138152720a0c2e8d040e6e8c2e4e840dad2e6dac2e8c6d606b1b60208201525f906105d2565b6001600160a01b038716848461043b60018261145c565b81811061044a5761044a611421565b905060200201602081019061045f9190611401565b6001600160a01b03161461049e5750506040805180820190915260118152700a0c2e8d040cadcc840dad2e6dac2e8c6d607b1b60208201525f906105d2565b60025460405163d06ca61f60e01b81526001600160a01b039091169063d06ca61f906104d2908990889088906004016114b5565b5f60405180830381865afa92505050801561050e57506040513d5f823e601f3d908101601f1916820160405261050b91908101906114eb565b60015b61054f57505060408051808201909152601881527f526f7574657220657374696d6174696f6e206661696c6564000000000000000060208201525f906105d2565b85816001835161055f919061145c565b8151811061056f5761056f611421565b602002602001015110156105af5750506040805180820190915260118152700a6d8d2e0e0c2ceca40e8dede40d0d2ced607b1b60208201525f91506105d2565b50505060408051808201909152600581526415985b1a5960da1b60208201526001905b965096945050505050565b6001546001600160a01b031633146106105760405162461bcd60e51b8152600401610607906115b3565b60405180910390fd5b828114801561061e57508215155b61065a5760405162461bcd60e51b815260206004820152600d60248201526c125b9d985b1a59081a5b9c1d5d609a1b6044820152606401610607565b61066560035f611086565b5f805b84811015610837575f86868381811061068357610683611421565b90506020020160208101906106989190611401565b6001600160a01b0316036106db5760405162461bcd60e51b815260206004820152600a6024820152692d32b937903a37b5b2b760b11b6044820152606401610607565b5f8484838181106106ee576106ee611421565b905060200201602081019061070391906115e7565b61ffff16116107435760405162461bcd60e51b815260206004820152600c60248201526b16995c9bc81c195c98d95b9d60a21b6044820152606401610607565b83838281811061075557610755611421565b905060200201602081019061076a91906115e7565b6107789061ffff1683611449565b91506003604051806040016040528088888581811061079957610799611421565b90506020020160208101906107ae9190611401565b6001600160a01b031681526020018686858181106107ce576107ce611421565b90506020020160208101906107e391906115e7565b61ffff9081169091528254600181810185555f9485526020948590208451920180549590940151909216600160a01b026001600160b01b03199094166001600160a01b039091161792909217905501610668565b508060641461087d5760405162461bcd60e51b8152602060048201526012602482015271053756d206d75737420657175616c203130360741b6044820152606401610607565b6001546040516001600160a01b03909116907f7dd4174f58b81b1a425617f0ce0446c6a8a8f2cc6e6e0e0c483b4b41370dca31906108c2908890889088908890611600565b60405180910390a25050505050565b6001545f906001600160a01b031633146108fd5760405162461bcd60e51b8152600401610607906115b3565b610905610eb1565b600254600160a01b900460ff16156109525760405162461bcd60e51b815260206004820152601060248201526f141bdc9d199bdb1a5bc81c185d5cd95960821b6044820152606401610607565b5f871161098e5760405162461bcd60e51b815260206004820152600a6024820152690616d6f756e74496e3d360b41b6044820152606401610607565b600284108015906109d65750886001600160a01b031685855f8181106109b6576109b6611421565b90506020020160208101906109cb9190611401565b6001600160a01b0316145b8015610a2357506001600160a01b03881685856109f460018261145c565b818110610a0357610a03611421565b9050602002016020810190610a189190611401565b6001600160a01b0316145b610a5e5760405162461bcd60e51b815260206004820152600c60248201526b092dcecc2d8d2c840e0c2e8d60a31b6044820152606401610607565b600154610a79906001600160a01b038b81169116308a610ed9565b600254610a93906001600160a01b038b8116911689610f46565b6002546001545f916001600160a01b03908116916338ed1739918b918b918b918b9116610ac24261012c611449565b6040518763ffffffff1660e01b8152600401610ae39695949392919061165c565b5f604051808303815f875af1158015610afe573d5f5f3e3d5ffd5b505050506040513d5f823e601f3d908101601f19168201604052610b2591908101906114eb565b90508060018251610b36919061145c565b81518110610b4657610b46611421565b6020908102919091010151600254909250610b6e906001600160a01b038c811691165f610f46565b6001546040516001600160a01b03808e169216907f3e2b267bb30f02df92d626e672248cb1509cb1d0297a73cb4bf1c7ef5253fb1790610bbb908e908e908e9089908c908c904290611699565b60405180910390a350610bcd60015f55565b9998505050505050505050565b60025460405163d06ca61f60e01b81526060916001600160a01b03169063d06ca61f90610c0f908790879087906004016114b5565b5f60405180830381865afa158015610c29573d5f5f3e3d5ffd5b505050506040513d5f823e601f3d908101601f19168201604052610c5091908101906114eb565b949350505050565b6001546001600160a01b03163314610c825760405162461bcd60e51b8152600401610607906115b3565b6002805460ff60a01b191690556040513381527f5db9ee0a495bf2e6ff9c91a7834c1ba4fdd244a5e8aa4e537bd38aeae4b073aa906020015b60405180910390a1565b6040516370a0823160e01b81523060048201525f906001600160a01b038316906370a0823190602401602060405180830381865afa158015610d09573d5f5f3e3d5ffd5b505050506040513d601f19601f82011682018060405250810190610d2d91906116fa565b92915050565b6001546001600160a01b03163314610d5d5760405162461bcd60e51b8152600401610607906115b3565b600254610d77906001600160a01b0383811691165f610f46565b6001546040516001600160a01b038084169216907f97a94ee714dc2c5c1889f6fe8e8909a95e0307c4b272c7df374bf76582099f87905f90a350565b6001546001600160a01b03163314610ddd5760405162461bcd60e51b8152600401610607906115b3565b610de860035f611086565b600154604080515f80825260208201908152818301928390526001600160a01b03909316927f7dd4174f58b81b1a425617f0ce0446c6a8a8f2cc6e6e0e0c483b4b41370dca3192610e3a929190611711565b60405180910390a2565b6001546001600160a01b03163314610e6e5760405162461bcd60e51b8152600401610607906115b3565b6002805460ff60a01b1916600160a01b1790556040513381527f62e78cea01bee320cd4e420270b5ea74000d11b0c9f74754ebdbfc544b05a25890602001610cbb565b60025f5403610ed357604051633ee5aeb560e01b815260040160405180910390fd5b60025f55565b6040516001600160a01b038481166024830152838116604483015260648201839052610f409186918216906323b872dd906084015b604051602081830303815290604052915060e01b6020820180516001600160e01b038381831617835250505050610fd1565b50505050565b604080516001600160a01b038416602482015260448082018490528251808303909101815260649091019091526020810180516001600160e01b031663095ea7b360e01b179052610f97848261103d565b610f40576040516001600160a01b0384811660248301525f6044830152610fcb91869182169063095ea7b390606401610f0e565b610f4084825b5f5f60205f8451602086015f885af180610ff0576040513d5f823e3d81fd5b50505f513d91508115611007578060011415611014565b6001600160a01b0384163b155b15610f4057604051635274afe760e01b81526001600160a01b0385166004820152602401610607565b5f5f5f5f60205f8651602088015f8a5af192503d91505f51905082801561107c5750811561106e578060011461107c565b5f866001600160a01b03163b115b9695505050505050565b5080545f8255905f5260205f20908101906110a191906110a4565b50565b5b808211156110c35780546001600160b01b03191681556001016110a5565b5090565b602080825282518282018190525f918401906040840190835b8181101561111757835180516001600160a01b0316845260209081015161ffff1681850152909301926040909201916001016110e0565b509095945050505050565b80356001600160a01b0381168114611138575f5ffd5b919050565b5f5f83601f84011261114d575f5ffd5b50813567ffffffffffffffff811115611164575f5ffd5b6020830191508360208260051b850101111561117e575f5ffd5b9250929050565b5f5f5f5f5f5f60a0878903121561119a575f5ffd5b6111a387611122565b95506111b160208801611122565b94506040870135935060608701359250608087013567ffffffffffffffff8111156111da575f5ffd5b6111e689828a0161113d565b979a9699509497509295939492505050565b8215158152604060208201525f82518060408401528060208501606085015e5f606082850101526060601f19601f8301168401019150509392505050565b5f5f5f5f60408587031215611249575f5ffd5b843567ffffffffffffffff81111561125f575f5ffd5b61126b8782880161113d565b909550935050602085013567ffffffffffffffff81111561128a575f5ffd5b6112968782880161113d565b95989497509550505050565b5f5f5f5f5f5f5f5f5f60e08a8c0312156112ba575f5ffd5b6112c38a611122565b98506112d160208b01611122565b97506112df60408b01611122565b965060608a0135955060808a0135945060a08a013567ffffffffffffffff811115611308575f5ffd5b6113148c828d0161113d565b90955093505060c08a013567ffffffffffffffff811115611333575f5ffd5b8a01601f81018c13611343575f5ffd5b803567ffffffffffffffff811115611359575f5ffd5b8c602082840101111561136a575f5ffd5b60208201935080925050509295985092959850929598565b5f5f5f60408486031215611394575f5ffd5b83359250602084013567ffffffffffffffff8111156113b1575f5ffd5b6113bd8682870161113d565b9497909650939450505050565b602080825282518282018190525f918401906040840190835b818110156111175783518352602093840193909201916001016113e3565b5f60208284031215611411575f5ffd5b61141a82611122565b9392505050565b634e487b7160e01b5f52603260045260245ffd5b634e487b7160e01b5f52601160045260245ffd5b80820180821115610d2d57610d2d611435565b81810381811115610d2d57610d2d611435565b8183526020830192505f815f5b848110156114ab576001600160a01b0361149583611122565b168652602095860195919091019060010161147c565b5093949350505050565b838152604060208201525f6114ce60408301848661146f565b95945050505050565b634e487b7160e01b5f52604160045260245ffd5b5f602082840312156114fb575f5ffd5b815167ffffffffffffffff811115611511575f5ffd5b8201601f81018413611521575f5ffd5b805167ffffffffffffffff81111561153b5761153b6114d7565b8060051b604051601f19603f830116810181811067ffffffffffffffff82111715611568576115686114d7565b604052918252602081840181019290810187841115611585575f5ffd5b6020850194505b838510156115a85784518082526020958601959093500161158c565b509695505050505050565b6020808252600990820152682737ba1037bbb732b960b91b604082015260600190565b803561ffff81168114611138575f5ffd5b5f602082840312156115f7575f5ffd5b61141a826115d6565b604081525f61161360408301868861146f565b8281036020808501919091528482528591015f5b858110156116505761ffff61163b846115d6565b16825260209283019290910190600101611627565b50979650505050505050565b86815285602082015260a060408201525f61167b60a08301868861146f565b6001600160a01b039490941660608301525060800152949350505050565b6001600160a01b03888116825287166020820152604081018690526060810185905260c0608082018190528101839052828460e08301375f60e084830101525f60e0601f19601f86011683010190508260a083015298975050505050505050565b5f6020828403121561170a575f5ffd5b5051919050565b604080825283519082018190525f9060208501906060840190835b818110156117535783516001600160a01b031683526020938401939092019160010161172c565b5050838103602080860191909152855180835291810192508501905f5b8181101561179257825161ffff16845260209384019390920191600101611770565b5091969550505050505056fea26469706673582212209a0fd2f194f82522b7a21262d81f8f7e092f992ca41c2b0f801e9bb9cecf758864736f6c634300081c0033a2646970667358221220bd4ea225fb42e79a338df56674786265213e0ceac5a3e766267558a68e7769f164736f6c634300081c0033",
  "linkReferences": {},
  "deployedLinkReferences": {},
  "immutableReferences": {},
  "inputSourceName": "project/contracts/core/SmartPortfolio.sol",
  "buildInfoId": "solc-0_8_28-701e726d65c4a9461d6c30bc061a76afeb49a917"
}